:040000006F10D0218C
:10000400000000000000000090000020A402002076
:10001400A9BDF9F55C030020000000000000000009
:100024005C0300209000002000000000000000009D
:10003400900000200000000090000020000000005C
:1000440090000020900000209000002090000020EC
:1000540090000020340C00209000002000000000DC
:10006400900000209000002090000020D803002081
:10007400C203002090000020900000209000002087
:1000840090000020900000209000002090000020AC
:1000940001A04111B7170040985F3AC6945F3247F8
:1000A400E39CE6FE3245410182800111130780087A
:1000B400F337078093F787083EC201000100B717A2
:1000C4000040930570052380B704130680FA23804B
:1000D400C7040100010083C6B70493F6F60DA38597
:1000E400D704238007049246F3A60680010001008A
:1000F40093760502D5CEF336078093F6860836C488
:10010400010001002380B7042380C704010001001B
:10011400B70614007D89558D88C7010001000100D0
:10012400010023800704A246F3A606800100010013
:1001340073370780137787083AC6010001002380CC
:10014400B7042380C7040100010001000100372720
:10015400004093061005A303D78023800704B24709
:10016400F3A707800100010093078008F3B7078015
:1001740093F787083ECE01000100B717004013072C
:1001840070052380E704130780FA2380E704010045
:10019400010003C7B70413670708A385E704238096
:1001A4000704F247F3A7078001000100056182807C
:1001B40093760504BDC6F336078093F6860836C8E1
:1001C400010001002380B7042380C704010001005B
:1001D400B7061400938606047D89558D88C70100EF
:1001E40001000100010023800704C246F3A6068033
:1001F4000100010073370780137787083ACA0100AA
:1002040001002380B7042380C704010001003727BD
:10021400004093062005A303D78023800704D24718
:1002240081B773370780137787083ACC0100010040
:100234002380B7042380C704010001009847136793
:10024400070C98C723800704E24719BF01118146B0
:1002540001468145114506CE1D2693078008F3B754
:10026400078093F787083EC601000100B7170040D6
:10027400130770052380E704130780FA2380E7043B
:100284000100010003C76704136717002383E70411
:1002940023800704B247F3A7078001000100F2405E
:1002A4000561828041118146014681451145C12C79
:1002B40013078008F337078093F787083EC40100CB
:1002C4000100B7170040130670052380C704930686
:1002D40080FA2380D70401000100FD552396B7025C
:1002E40023800704A245F3A50580010001007337AC
:1002F4000780137787083AC6010001002380C704EA
:100304002380D7040100010003C7670413671700A3
:100314002383E70423800704B247F3A7078001007F
:10032400010001A0BD473305F50201007D1575FDEF
:100334008280411122C426C206C6AA8401446317DE
:100344009400B24022449244410182800504130582
:10035400803E4204C13F4180DDB7000093050002A6
:1003640073A0458082457390153492402242B24274
:100374004243D2436244F244025592552256B25645
:100384004257D2576258F25806499649264AB64A05
:10039400464BD64B664CF64C065D965D265EB65EC5
:1003A400465FD65F0961730020304111B7170040E2
:1003B400985F3AC6945F3247E39CE6FE32454101BA
:1003C4008280B7170040130700032388E70285479C
:1003D40023A8F18273002030373700408347474019
:1003E4009946BD8B638FD704011122CE26CC3147A9
:1003F400638DE70411476391E704138581539720C4
:1004040000E0E7808062938781831375F50F804352
:10041400A307A1000346F10017350000130505A545
:1004240022959385815397C001E0E78020A88347F4
:10043400F1003E9423AC81827244E244056173006E
:100444002030834757407300203013858153972011
:1004540000E0E780805D938781831375F50FA30720
:10046400A10080430346F10097340000938404A064
:10047400938581533385840097C001E0E78000A30E
:100484008347F10026853E9423AC818297C001E026
:10049400E780E09D93150501C1812685972000E042
:1004A400E7802056C14503C5418323AC0182976090
:1004B40001E0E780604E49B7411106C6EF00B02B5A
:1004C400F5BF2303048015472303E48001002302BE
:1004D400A480828083076480E3CE07FE2303048024
:1004E400828083076480E3CE07FE034544808280D4
:1004F40083076480E3CE07FE2302A4808280411137
:1005040026C44AC24EC006C61377F50BAD47AA8966
:100514002E8995446306F70019456537653F8D4478
:100524004E854537FD59FD1463983401B240A24409
:100534001249824941018280135509011375F50F4F
:10054400453F2209CDB7011126CC06CEB7040800D9
:1005540051371545BD37713769372AC6A53F32452E
:100564009377150089EB136515001375F50FF240A9
:10057400E24405618280FD14E9FC0145CDBF397177
:1005840026DC4ADA4ED852D656D45AD25ED006DE8B
:1005940062CE66CCB7E700E07D5783AA070022C687
:1005A40003AA470023A0E71823A2E718B7170040BF
:1005B400130770052380E704130780FA2380E704F8
:1005C40083C74704930B75FFB684E20793FBFB0FC5
:1005D4008546AA892E8B328937240040E18701574A
:1005E40063FA76016308D500894613070002631392
:1005F400D5000157D98F93F7F70FB71C004023821A
:10060400FC0411472303E4801305F00F5D3D094CFE
:10061400D135636D7C11B7050700DA95378707007C
:10062400795563F2E504B3879500636EF702370BDF
:100634000800A94733EB65016399F90689E481440D
:10064400513D26850DA0DA850945553D050903452B
:10065400F9FFFD14050B693D81C49377FB0FFDF78A
:10066400DD3569FD7D55B7170040130770052380FC
:10067400E704130780FA2380E70403C74704418B88
:100684002382E704F250B7E700E023A0571123A226
:100694004711E25432445259C259325AA25A125B97
:1006A400825B724CE24C21618280A5476395F90616
:1006B40085691309F00FB3069900B3742B01B6943E
:1006C4001349F9FFB3749900856B33796901416B60
:1006D4009387F9FFB3F7270199E363FC340193D9B6
:1006E4004900C147E3E637FF99BF0569C1697D1930
:1006F400D9B71305800D638869011305000263846B
:10070400790113051008CA85DD3B353D21DD4E997D
:10071400B3843441D9B7DA852D45D533CA94E3007F
:1007240099F205097D3BA30FA9FED5BF9387F9FF75
:1007340093F7F70F6361FC0C83C71C04130730089D
:10074400631FF70437070800636BEB04B3079B00D0
:10075400B706100063F5D704334BEB008947639366
:10076400F9068980D549E38C04ECDA850945413BD7
:1007740011090327C9FF91472320E48003076480FC
:10078400E34E07FE23033481FD17EDFBFD14110B2B
:1007940081C49377FB0FE9FF7D3371F5E1B5B7179A
:1007A400004003C75704B70708001377070219E38B
:1007B400B78707007955E378FBEA33079B00E3FF2B
:1007C400E7F855B58547E382F9F2DA852D45053B0F
:1007D4009389F4FFE38504E6293393F7390091EB19
:1007E400832604800327090093074900E39AE6E47B
:1007F4003E89CE84F1BFB5476396F9001305900B8B
:10080400C93135BDB1471305B00AE38BF9FE9947E9
:100814006391F904B7050800B365BB002D45C531E4
:1008240081448D4BA14975396396740183270480F3
:100834002320F9008504E39834FF832704801317E9
:100844002B01635507002312F900D5BB2322F900BD
:10085400FDB39D476399F90281451305B004453101
:10086400BD442320090023220900FD599D3993F733
:100874007400CA9703C70700FD14398D2380A700AD
:10088400E39634FF6DBBA1476392F9046D3981444B
:10089400630D0B008D479304C0036308FB009304AE
:1008A400000563048B01930440041375C507E30832
:1008B40095D81945393139390545213126850D3900
:1008C40009453D314931E31C05D669BB914763991C
:1008D400F90013056006F536F53E130590090DB7CA
:1008E400E38F09D4F154A9BBBD6601471746000044
:1008F4001306C6BC938606A685458347060093F770
:10090400F70F91C382800507E3F9E6FE97470000DD
:100914002386B7BADDB77D16620661869317860112
:10092400E18763D4070001458280931726003307CB
:10093400F500AE9718439C4363E7E7007D16E37F19
:10094400F7FC7D55828005458280FD15E205E18531
:1009540013978501618793F7F50F63480700FD1529
:10096400139725002A97584365D713851700620506
:10097400618582803308B5021C4283A80600B33522
:10098400B502C29733B50701AE98469585486367AB
:10099400B5006394A50063E3070181480C43C69541
:1009A4000CC388C21CC28280814713978701618768
:1009B4006343B7008280139727002A9723200700F8
:1009C4008507E5B78147014793968701E18663C5AB
:1009D400B60013351700828093962700AA96944296
:1009E4008507558FD5B793D755408A07AA979C4357
:1009F40005453315B5007D8D8280171300E0E702AD
:100A040003102A84993705C5931725003E940327BC
:100A1400C4FF814711EB7D1516053E9542054185BE
:100A2400171300E06700E30F05838507E5B7014569
:100A3400C5BF81471397870161876343C7008280DD
:100A440013972700B386E50094422A97850714C3B9
:100A5400D5B77D1662066186014793178601E18743
:100A640063D5070013351700828093172600B30659
:100A7400F500AE9794429C437D16B58F5D8FF1BF10
:100A84008A05AA9501476363B500828083A6C5FFE2
:100A9400F11593D71600D98F9CC11397F601E5B7CA
:100AA4002A830148014701456343D7008280B38705
:100AB400050183A80700B30706019C43C697AA97BC
:100AC4006384F80033B517010507B308030162070F
:100AD40023A0F80061871108C1BF2A830147814719
:100AE400014563C3D70082803388E500832808006A
:100AF400330EE600032E0E003388A8403308C841A5
:100B04006384080133B508018507B308E300E207ED
:100B140023A00801E1871107E9B7171300E0E702F2
:100B240003FE0111B286B2842E86AA850A85753722
:100B34002A84A6850A857935333480000604133562
:100B44001500018D0561171300E0670083FD17137D
:100B540000E0E70243F84111AA89AE8A328BB684D9
:100B640002C202C402C60144131C8401135C8C41FA
:100B740063499C02939B1400FD1B0549138CF4FFED
:100B8400F15C3304890162046184634D7405924706
:100B94008E04CE9423AEF4FE4101171300E06700E7
:100BA40003F713192400B30B2B01014A93172A00EE
:100BB400D69783A50B0088437800340050005D3B32
:100BC400050A93178A01E187F11BE351FCFE924762
:100BD4004E9905042320F900A2473EC2B24702C63B
:100BE4003EC459B7131A8901135A8A41131D2400AC
:100BF40093178A01E18763CF970092470A044E94C2
:100C04001CC0A24705091379F90F3EC2B24702C6B8
:100C14003EC485BFB3079A0313152A0056950841AD
:100C2400780034005000050AEA97DA978C43993328
:100C3400C1B70000197106C212C416C61AC81ECA6A
:100C440022CC26CE2AD02ED232D436D63AD83EDA88
:100C540042DC46DECAC0CEC2D2C4D6C6DAC8DECAB8
:100C6400E2CCE6CEEAD0EED2F2D4F6D6FAD8FEDA68
:100C7400938581828841E700050092402242B24276
:100C84004243D2436244F244025592552256B2562C
:100C94004257D2576258F25806499649264AB64AEC
:100CA400464BD64B664CF64C065D965D265EB65EAC
:100CB400465FD65F096173002030B7E700E09843D0
:100CC400B706200023A0D718758F0F10000001C5A8
:100CD40099C1814711E6B7E700E023A0E7108280BD
:100CE400B386F50003C80600B306F5008507238024
:100CF4000601E317F6FEC5B737E700E01C43B70665
:100D040020002320D718F58F0F10000001C53307EA
:100D1400C50011E637E700E02320F71082800505BF
:100D2400A30FB5FEE31DE5FEF5B737E700E01C436E
:100D3400B70620002320D718F58F0F10000001C537
:100D440099C1014711EA37E700E02320F710054570
:100D540082800507E309E6FE3308E500B386E50073
:100D64000348080083C60600E305D8FE37E700E021
:100D74002320F7100145828037E700E01C43B706C3
:100D840020002320D718F58F0F1000001307F6FF5B
:100D9400BA952A966317C50037E700E02320F710B9
:100DA4008280FD1503C715000505A30FE5FEDDB719
:100DB40037E700E01C43B70620002320D718F58F3F
:100DC4000F10000001C53307C50019E637E700E03E
:100DD4002320F7100145828005058346F5FFE3973C
:100DE400B6FEE31BE5FE37E700E02320F7100545D8
:100DF4008280797197470000938787BD22D480430E
:100E040006D626D24AD04ECE52CC56CA5AC85EC650
:100E140079C0B7C4C901014B974900009389C9BA85
:100E24009384F437174A0000130ACABA974A000099
:100E3400938ACAB417490000130989BE8357240052
:100E440095E35C44631D0B00174700002322F7B8A9
:100E5400832BC4002285EF00902B5E84B9A823263F
:100E6400FB00FDB783A7090082971C443307F540B4
:100E74006376F500032749001D8F2A9763E2E4088F
:100E84009747000023A407B08355240003450400BA
:100E9400976001E0E78040B05C405844A1CB0C442B
:100EA40003264900AE97BE8663E4B70063E4C70037
:100EB400B386C74014C4228B3A8449F09747000094
:100EC4009387C7AB9C4B09476372F706F91717471B
:100ED4000000232DF7AAB250225492540259F24929
:100EE400624AD24A424BB24B4561828063170B007F
:100EF4009747000023AEE7ACA1BF2326EB0089BFD0
:100F040003274A0209CF63EFA7003385A74083A7CD
:100F14000A016376F5009747000023A9A7A6228B50
:100F2400404461BF03274900BA97C5B797470000FB
:100F340023AE07A44DB7974700009387E7AD9C43C2
:100F440085C3411106C682979747000083C7A7A7A8
:100F540089E79747000023A107ACB2404101828092
:100F64009747000083C727A691E79747000023A56A
:100F740007AA82808280411122C41744000013040E
:100F8400A4A21C4006C626C24AC091C782979747AE
:100F9400000023AB07A09747000083C737BD858BAC
:100FA40017490000130949BC89CF834779001947C1
:100FB4006312F71097470000A38A07BAC1215C4463
:100FC40082971C4491C3829797440000938404A0A1
:100FD4009840174600000346769A9747000083C757
:100FE400E79993961700BA9683D60600E5C2974709
:100FF400000083C7A79863E5C70E97470000238FB7
:1010040007961C40639E0714974700009387C79B6D
:101014009C436387071497470000938767A0DC43CA
:10102400174700002324F796E9339747000083C746
:1010340057B4639707129747000083C777B391CFDC
:101044008347790093F7F70F89EB97470000A38153
:1010540007B2977001E0E780204697470000938726
:101064006797DC53638E070E9747000093870791B9
:101074009C4BFDC78347790015476363F70E974779
:10108400000083C7E7B3918BE1EF9747000083C764
:101094008793F9E790409746000083C6368E63C76E
:1010A400D70C2244B240924402494101176301E043
:1010B400670023BE834779001D47E314F7F0974781
:1010C4000000A38507AA5D2E1C48DDBD850793F7A4
:1010D400F70F974600002383F68AE3E0C7F001BFC9
:1010E40086073E97835507002310070097470000A3
:1010F400239A078C974700009387C78A9C43174518
:1011040000000345A58713172500BA979C438297CF
:101114009747000083D7078B1747000003470786CC
:1011240093C7F7FF7D8D9317170098403E97835719
:1011340007005D8D2310A7009747000083C707842D
:1011440091C7850717470000230AF7821747000055
:101154000347C7829747000083C75782E37FF7E8B6
:10116400B2402244924402494101828013971700FD
:101174003297035707006DF7850715B737C7004047
:101184008326C720B707FCFFFD17F58F2326F7201A
:1011940001000100973700009387477EC84F8327DB
:1011A40087262326D7206A0593C7F7FF99835D8D89
:1011B40082800000EFF03FD87300000000000000C0
:1011C400974200009382228003830200238002005E
:1011D400630F0300F32510342EC097050000938598
:1011E400A5FD73901534EF00204C7300203086DC8D
:1011F400EF00804BE6508280000017470000130781
:1012040067961443411122C49C5E4AC006C6998362
:1012140026C2858B3A841749000013096994D1CBFF
:10122400930700069CDE1747000003474794930783
:1012340000089744000093842493631BF7008327DA
:1012440009009C4393F70704174700002301F79212
:1012540083C7040093F707049DC39737000093875F
:10126400A7769C4382979747000023ADA79083C736
:10127400040093F7F70B174700002307F78E83C783
:10128400440093F7070495E7854717470000A30F29
:10129400F78C974700009387A78F9C43370702007A
:1012A40098C7130700FC974600002381E68C9848F2
:1012B400F8D318401C5F9183858B8DC31C5F93E723
:1012C40007011CDF974700009387878C9C4323A268
:1012D4000706854717470000230AF7888327090074
:1012E400D8430583058B19C7D843759BD8C3D84306
:1012F400799BD8C3B240224492440249410182807E
:10130400ED3D730020309317D50063D30702974750
:1013140000009387E7879C437D57B8D79737000031
:101324009387C765DC4F8507173700002326F766C8
:10133400937785008DC39747000083C7078393E79E
:101344001700174700002302F782930700F8174796
:101354000000230DF7809377150099CB9747000081
:1013640083C7978093E7170017370000A30EF77E13
:101374009377650095CF17370000A309077E13778D
:101384004500973700009387277E4DCB83C707001E
:1013940093E71700173700002308F77C97370000FE
:1013A4009387477C98435C57F19B93E717005CD77E
:1013B4009317F50063D40702174700000347079209
:1013C400418B974700009387E78951C383C78707F9
:1013D40093E70702174700002302F7909317E500ED
:1013E40063D707029737000083C74778E207E1878E
:1013F40063D707008547173700002309F776973727
:1014040000009387E7789C433707020098C7931737
:10141400C50063D40702174700000347378C058BC8
:10142400974700009387078429C383C7970793E7E7
:10143400270017470000A303F78A828083C7370079
:1014440093E7170017370000A301F77281BF03C7A2
:10145400870789463D8B6308D70083C787070D47F5
:10146400BD8BE39DE7F69147B5B703C79707118B8B
:1014740069D783C7970793E7870065BF973700004D
:10148400938707719443973700009387E76D03C7E9
:101494000700058B11CB973700002389076C97371A
:1014A4000000A385076C828003C71700058B65F7CE
:1014B400F85271FF83C75700DDB7173700001307D1
:1014C400676A03280700832788039583858BADEF1C
:1014D40011C683270803BD832300F6009DC61C4361
:1014E400985B4607935767016356070093E707C065
:1014F400C207C18303970600C207C18709C7BA9709
:101504000947B3C7E7022390F6008DCD8345150044
:1015140095C99737000083C7876593F70704138736
:101524009500894585C33A95834705000547994544
:1015340093F6F7066398E600E207E187814563D3F3
:101544000700B9452E8582808545EDBF411126C22D
:1015540006C622C497340000938484633DED94400E
:10156400AE87F8527DFF37F400E03E8597370000E0
:10157400238D075E832704D1B285ED9B2328F4D005
:10158400832704D193E787022328F4D073005010F3
:10159400977001E0E78000DF973700009387875C4E
:1015A4009C43B70680009843558F98C3D857719BC6
:1015B400D8D797370000A38B075A97370000A38525
:1015C400075A9C40094798C3832704D193E78700AF
:1015D4002328F4D0730050100DA08D476315F50433
:1015E40097370000938707589C43B70680009843B9
:1015F400558F98C3D857719BD8D79440173700009C
:101604001307875683472700858B89EB8347370069
:10161400858BC1CB97370000238A0754B2402244FC
:101624009244410182808547E319F5FCB7F700E055
:1016340003A707D16D9B23A8E7D003A707D113679E
:10164400870223A8E7D07300501098408177FD17D4
:101654005447F58F5CC70F1000009840B70702008D
:101664001CC7930700F8173600002301F65097377C
:1016740000009387274F9C439C439D83858B639FE6
:10168400A700930760197CD354C737F700E083277A
:1016940007D193E787002328F7D02DBF9307E01BDA
:1016A400DDB7FC52A5F39DBF973700009387474EE3
:1016B4009C438847D847798D09C988C79387818710
:1016C40003A307006303030002838280173700002B
:1016D4001307474C8346B7019737000083C7574E1B
:1016E4004C4BB697FD8B33D7F50097360000A38398
:1016F400F64A97360000A385F64C058B15EF17378D
:1017040000000347374CB3F7E7028146014713054E
:10171400000233D6E500058A1378F70F19CA6397D8
:10172400D70097370000A38707478280850693F682
:10173400F60F0507E31FA7FC828097370000938705
:10174400A7289C43011122CC4AC806CE26CA4EC6FD
:101754008297973700009387E745804701496301E3
:10176400A406BE8463668506018D1354550097371D
:10177400000083C7C7431379F5016360F404973904
:1017840000009389E929993703A88400973600005B
:1017940083C6E641139756004297158C3A8683A573
:1017A4004900636407016364B7003306B7409737A1
:1017B400000023A5C740E378D4FC16043369240150
:1017C400F24062444A85D2444249B249056182806A
:1017D400973700009387C724DC43338487402295DE
:1017E40069B7973700009387A73A98438967938727
:1017F40007F47CD3973700009387C73E9C4383A6A6
:101804000709139656006358060083A60709139622
:101814006600634406007453FDF282804111B7E709
:1018240000E022C480433707200006C6798C23A039
:10183400E7180F10000011C199E5B7E700E023A0F5
:10184400871001457DA893073500C207C183F19B2A
:10185400C207C183130740036369F7021737000007
:10186400130707400843173700001307E73E1443E4
:101874006392A602173700001307C715185B55DFDC
:10188400C207DD8D054502974DBF173700001307CA
:10189400E73CC9BF035765002DEB0357450063665A
:1018A400F706B306F7402146637CD60203280500F9
:1018B400938687001D8FAA9661171736000003567A
:1018C400460C2392E60023A006012393060014C1CC
:1018D4002312F500130786FF973600002393E60AC8
:1018E4002313B5009735000083D5A509B387F540C8
:1018F400173700002317F708B7E700E023A0871085
:101904002105B240224441018280084195B7B7E7DE
:1019140000E08C433707200023A0E718F98D0F104F
:10192400000001E523A0B710828097370000938759
:10193400273303A30700973700009387E73183A871
:10194400070081469A8763F2170D03A807006361B5
:10195400F50C636FA80A138787006368E50A03D64A
:101964006700216705076317E60003C7318705078A
:10197400A389E186173500001305450003D6470007
:101984000357650023930700329742074183173EAC
:1019940000002318EEFE638C670217330000130364
:1019A400E32B032303006304F30203D366006310F1
:1019B400030283D7460023A0060121073E96210691
:1019C4002392C60097370000239DE7FAB687984311
:1019D400630D1703973600009386462894426306E6
:1019E400D7028356670095E283D647000356470023
:1019F4001843A106B2962392D70098C38357650073
:101A0400A10717370000231EF7F6B7E700E019BF58
:081A1400BE86C2870DBF000071
:101A1C0097110020938141BD175100201301C1DDA6
:101A2C001305400097E5FF1F9385055D1706002001
:101A3C00130606FE63FAC5008322050023A0550099
:101A4C0011059105E3EAC5FE17D50100130545887C
:101A5C00970500209385C5FB1386018263FAC500A8
:101A6C008322050023A0550011059105E3EAC5FE6C
:101A7C001385018297350020938505316377B50076
:101A8C00232005001105E36DB5FEFD42739002BCE9
:101A9C008D4273904280930280087390023097E2DB
:101AAC00FF1F9382625593E232007390523097225B
:101ABC0000009382227773901234730020303971B6
:101ACC0001436EC619A0397141536AC866CA62CC0B
:101ADC005ECE19A0397101535AD056D252D44ED67B
:101AEC004AD826DA22DC06DE3301614082824111BB
:101AFC004AC026C222C406C68282B24D4101024DA2
:101B0C00924C224CB24B4101024B924A224AB249AE
:101B1C004101024992442244B240410182803D433A
:101B2C002A876373C3029377F700BDEFADE5937615
:101B3C0006FF3D8ABA960CC34CC30CC74CC7410771
:101B4C00E36BD7FE11E28280B306C3408A0697028C
:101B5C00000096966780A6002307B700A306B7007F
:101B6C002306B700A305B7002305B700A304B700ED
:101B7C002304B700A303B7002303B700A302B700E5
:101B8C002302B700A301B7002301B700A300B700DD
:101B9C002300B700828093F5F50F93968500D58DC1
:101BAC0093960501D58D61B7939627009702000097
:101BBC0096968682E78086FA9680C1171D8F3E9690
:101BCC00E374C3F8A5B73367B500FD530D8B79E704
:101BDC00B7877F7F9387F7F710419441B372F60074
:101BEC003363F600BE92B3E262006397720C631823
:101BFC00D6065041D441B372F6003363F600BE9260
:101C0C00B3E262006398720A631BD60410459445D4
:101C1C00B372F6003363F600BE92B3E262006391D6
:101C2C00720A631ED6025045D445B372F600336374
:101C3C00F600BE92B3E26200639A72086311D60298
:101C4C0010499449B372F6003363F600BE92B3E2C6
:101C5C006200639372085105D105E30FD6F6131792
:101C6C00060193970601631CF7001357060193D7DF
:101C7C0006013305F7409375F50F91E98280418396
:101C8C00C1833305F7409375F50F91E1828013778B
:101C9C00F70F93F7F70F3305F740828003460500E3
:101CAC0083C60500050585056313D60065FA330563
:101CBC00D640828011059105E312D6FE0145828043
:101CCC002105A105E31CD6FC014582803105B10537
:101CDC00E316D6FC014582804105C105E310D6FC14
:101CEC0001458280B717004003C777051377E70FCC
:101CFC00A38BE704130700F8A38DE7043D47238C5F
:101D0C00E70413075003A38CE70403C7A705137755
:101D1C00D70F238DE7048280B717004003C7E70273
:101D2C000D8941111377C70F498F93068008F3B6BD
:101D3C00068093F6860836C60100010093067005EE
:101D4C002380D704930680FA2380D7040100010076
:101D5C002387E70223800704B247F3A7078001001B
:101D6C0001004101828041112A83014E930E407E75
:101D7C00130F0019930F400663E56E1293080019B8
:101D8C0013034006B3781503854E0D4FA14F3373E3
:101D9C0065020D891335150063EFBE121308F6FFAB
:101DAC00794672984208135808013307C70213D6B4
:101DBC001700BE0732976146B3F6C6021306807051
:101DCC00B386C6023697A166F58F42075D8FB716AC
:101DDC00004083C7F60293F70708A303F1000346FC
:101DEC00710083C7F60293F70708E394C7FE834795
:101DFC007100B716004093F7F70F6388071293072B
:101E0C008008F3B7078093F787083EC401000100F0
:101E1C00B7170040930670052380D704930680FA09
:101E2C002380D7040100010023AA070383C61703EC
:101E3C0093E60608A388D70223800704A247F3A7DA
:101E4C000780010001001166B71700407D16D45BB6
:101E5C00C85F93854703A98EF18EF5FA9306800827
:101E6C00F3B6068093F6860836C601000100930689
:101E7C0070052380D704930680FA2380D7040100D1
:101E8C00010098C103C7170313670704A388E7026F
:101E9C0023800704B247F3A707800100010041012A
:101EAC0082807D133368E3039308E016630E080009
:101EBC003368F3039308D016630808009378330053
:101ECC0093B818009388D81633081E01131E080106
:101EDC00135E0E0155B56393E50305486386080050
:101EEC000148630303002A8871087298FD15131EBC
:101EFC000801C205135E0E01C18179BD13F81500EE
:101F0C0063F4BF007908D5B713381800E5BF83C751
:101F1C00F60293F70708A303F1000346710083C789
:101F2C00F60293F70708E394C7FE8347710093F713
:101F3C00F70FF1DFE9B531714AD966CB06DF22DD47
:101F4C0026DB4ED752D556D35AD15ECF62CD6AC955
:101F5C006EC7AA8C02D8EF0010122A89930780084A
:101F6C00F3B7078093F787083EDA01000100B71733
:101F7C000040130770052380E704130780FA2380C1
:101F8C00E7040100010003C7F7021377770FA3875B
:101F9C00E70203C7F70213678700A387E7022380D2
:101FAC000704D257F3A70780010001000545AD33A4
:101FBC00130780C13347E902116A93070AE89306B5
:101FCC005002BD69930BA004814A014B1304800895
:101FDC00930470057D1AB347F9023307D7023EC04C
:101FEC00FD873ECC938709A69309803E3347F702C1
:101FFC003AC27D873AC4334739038549B39999016D
:10200C0093D93940B306D702B30B7703B3C6F602A4
:10201C00B3CBFB0236C6FD8636C893D6FB4136CE13
:10202C00B7460F00938606243349D90285669386FA
:10203C0006FAB3969601B389E90213076055330982
:10204C00D90293060010B389E9023349D902B3C906
:10205C00F9029316390036CA37190040FD8636D07E
:10206C00930D090493D7F9413ED2F336048093F6CD
:10207C00860836DC01000100930770052380FD0003
:10208C00930680FA2380DD000100010083463905A8
:10209C0093F6860FA309D9048346390593E61600F7
:1020AC00A309D90423800D00E256F3A60680010093
:1020BC000100130C80FA116DF336048093F6860838
:1020CC0036DE01000100930770052380FD0023809C
:1020DC008D010100010083463905216693E6060255
:1020EC00A309D90483560905B3E6A6012318D9041C
:1020FC0083560905D18E2318D90423800D00F2567E
:10210C00F3A60680010001008346390593F606020A
:10211C006389061803463905218A6DDE0818612F7C
:10212C007336048013768608B2C201000100238046
:10213C009D0023808D0101000100B717004003C6EC
:10214C0037051376F60DA389C70403C63705136646
:10215C000602A389C704835609052166B3E6A601C6
:10216C002318D90483560905D18E2318D90423804A
:10217C000D009646F3A60680010001008346390542
:10218C0093F606026386061483463905A18AEDFE92
:10219C0097E0FF1FE78060EFAA8636D497E0FF1F19
:1021AC00E780A0EEA256E30AD5FE835609054255F8
:1021BC00B3E6A6012318D904292F83463905A18A31
:1021CC00EDDE035609058346290582473376CA009E
:1021DC00B306DA0293D5F641B296B388F640E247DD
:1021EC0033B8C6002E983308F840A247B3B6160190
:1021FC003308D84063C70701631DF800924763FAA0
:10220C001701C247634DF80E63950701B24763E8A7
:10221C00F80E894663E7660FF2469315180013D340
:10222C00F8015E8613951800B365B30042D646D408
:10223C00EF9021293258050B137BFB0F63470001EC
:10224C0063120838A258638F083613081500B3368A
:10225C00A800B69513D6F5013298B336C800AE96E1
:10226C0013581800FE06B3E6060173360480137685
:10227C008608B2C60100010023809D0023808D01D9
:10228C00010001000356C902B296C206C182231690
:10229C00D90223800D00B646F3A60680010001008A
:1022AC0021BDF336048093F68608B6C00100010008
:1022BC0023809D0023808D01010001008346390598
:1022CC0093E60602A309D90423800D0086460DBDB2
:1022DC00F336048093F68608B6C40100010023800F
:1022EC009D0023808D01010001008346390593E692
:1022FC000602A309D90423800D00A646A5BDE30D53
:10230C000BF0F336048093F68608B6C80100010082
:10231C00930680FA23809D002380DD0001000100DC
:10232C008346390593F5FC0F93F6860FA309D90460
:10233C0083463905CD8EA309D90423800D00C646EA
:10234C00F3A6068001000100130580FA0346390547
:10235C00930639051D8A6314962973360480137607
:10236C008608B2CC01000100130680FA23809D0080
:10237C002380CD000100010003C606001376F60D84
:10238C002380C60003C60600136606022380C6001F
:10239C00835609051166D18E2318D9048356090575
:1023AC002166D18E2318D90423800D00E646F3A6AE
:1023BC00068001000100130680FA8346390593F666
:1023CC0006026388062483463905130C3905A18A55
:1023DC00FDDA0818CD21F336048093F68608B6D0C2
:1023EC0001000100930680FA23809D002380DD000C
:1023FC000100010083460C00116693F6F60D2300D4
:10240C00DC0083460C0093E606022300DC008356B6
:10241C000905D18E2318D904835609052166D18E5E
:10242C002318D90423800D008656F3A606800100DC
:10243C000100130680FA8346390593F6060263857C
:10244C00062083463905A18AEDFE97E0FF1FE78041
:10245C00C0C32A8C97E0FF1FE78020C3E30C85FFE5
:10246C008356090511664255D18E2318D90495213E
:10247C008346390513063905A18AFDDAF336048043
:10248C0093F68608B6D401000100930680FA2380E7
:10249C009D002380DD00010001008346060093F6B9
:1024AC00F60D2300D60023800D00A656F3A6068059
:1024BC00010001008356090503462905D247B3766E
:1024CC00DA003306CA021305800C9355F641369692
:1024DC00330DF6408257333CD6002E9C3336A60182
:1024EC00330CFC40330CCC403308850392564E869B
:1024FC00B335A5033305A503C295EF80917C6346E4
:10250C008001631E0C16630C0D1613061500333573
:10251C00A6002E959356F5013696B335D600AA959E
:10252C009396F50105828585D18E6346B000639D37
:10253C00051A638B061A0356C90215823305D60099
:10254C003336C500B2956348B00063910524130679
:10255C00F00F637DA622894663F356159307800816
:10256C00F3B7078093F78708BED601000100371731
:10257C000040930770052300F704930780FA2300AB
:10258C00F704010001008356C70289678117D58FB4
:10259C00C207C1832316F70223000704B657F3A71B
:1025AC00078001000100FA506A54DA544A59BA59AA
:1025BC002A5A9A5A0A5BFA4B6A4CDA4C4A4DBA4D73
:1025CC00296182801308F5FF3335A800FD152E957F
:1025DC001356F5013298B336C800AA9651B1F336AA
:1025EC00048093F68608B6CA0100010023809D0082
:1025FC002380AD000100010083463905CD8EA3096F
:10260C00D90423800D00D646F3A6068001000100F4
:10261C0035BBF336048093F68608B6CE0100010074
:10262C0023809D002380CD000100010083463905E5
:10263C0093E60602A309D90423800D00F646F3A6FF
:10264C0006800100010095BBF336048093F68608E2
:10265C00B6D20100010023809D002380CD00010033
:10266C0001008346390593E60602A309D9042380A9
:10267C000D009656F3A60680010001006DBB930673
:10268C00F5FF33B5A600FD152E959355F501AE96C5
:10269C00B3B5B600AA951396F501858269B5F336E4
:1026AC00048093F68608B6D801000100930680FAE0
:1026BC0023809D002380DD00010001008356C902A8
:1026CC000566011693F6F60FD18EC206C18223164B
:1026DC00D90223800D00C656F3A606800100010026
:1026EC00850A93FAFA0F51B233E6B60045C2035687
:1026FC00C9023305D0403338A000B305B040B385D0
:10270C00054115826345B000D1E16371A608894685
:10271C0063F0560593078008F3B7078093F7870893
:10272C00BEDA01000100B7170040130770052380C3
:10273C00E704130780FA2380E7040100010003D7A4
:10274C00C7027D8B2396E70223800704D65781BDF1
:10275C00F336048093F68608B6DC0100010093067C
:10276C0080FA23809D002380DD0001000100835648
:10277C00C9020566011693F6F60FD18EC206C18208
:10278C002316D90223800D00E656B9B793078008AB
:10279C00F3B7078093F78708BEDE010001003717F7
:1027AC000040930770052300F704930780FA230079
:1027BC00F704010001000356C70293975600B29725
:1027CC00C207C1832316F70223000704F657C1BBC7
:1027DC00914763EEB70217B701001307A78E8A055E
:1027EC00BA959C41BA978287B717004003A7470B4D
:1027FC001345F5FF698F23AAE70A03A7070B698F17
:10280C0023A8E70A03A7070A798D23A0A70A8280C9
:10281C00B717004083A6470B1347F5FFF98E23AA81
:10282C00D70A83A6070B558D23A8A70A83A6070AE8
:10283C00758F23A0E70A8280B717004003A7470BC8
:10284C00498F23AAE70A03A7070B1345F5FF45BFDA
:10285C00B717004083A6470B1347F5FF758F23AAC4
:10286C00E70A03A7070A598D4DB7B717004003A70E
:10287C00470B498FEDB7B717004088474205418198
:10288C009377050491EB9377F5013755E801130520
:10289C0005803345F50282809377050C13070004FD
:1028AC006397E7009377F50137459C1CCDB72165FD
:1028BC00130505D0828037E700E01C435443A18305
:1028CC00E206D58F1CC1FD572320F7182322F718D9
:1028DC00828013178500B7E700E023A0E710618121
:1028EC0023A2A7108280B7F700E08847CC478280EC
:1028FC00814737370040A14663C4C70032858280C8
:10290C000345B740E38EA6FE3385F500034505006D
:10291C0085072304A740CDB797F7FF1F9387C74CB4
:10292C009C4317270020130727463E95636EE5004E
:10293C0017470020130747CC6368A70017F7FF1F42
:10294C002324A74A3E858280FD57EDBF411122C446
:10295C0006C62A840D372947B307E502B2408D839A
:10296C00B3D7870222449507B3D7E7023737004025
:10297C00C207C1832316F740410182807165411162
:10298C001305052006C6D937B7370040130770F872
:10299C002381E7400D47A381E74013070004A38080
:1029AC00E74005472387E740B24041018280373733
:1029BC000040834727401A0593F7F703C98F93F715
:1029CC00F70F2301F7408280B737004003C7174049
:1029DC0019C9D98DA380B74003C707401367870077
:1029EC002380E740828093C5F5FFF98DA380B74023
:1029FC008280B73700402147B736004091E1828092
:102A0C0003C6B740E30CC7FE05050346F5FFFD15ED
:102A1C00C2052384C640C181D5B78147B736004073
:102A2C0003C7A6401396070141821377F70F19E3EA
:102A3C003285828003C686403307F5008507230064
:102A4C00C700F9BF2380018223A20182B71700407F
:102A5C0003A7070CB706C0FFFD16758F23A0E70C64
:102A6C0003A7070DB7064000558F23A8E70C03A753
:102A7C00070C3D9B23A0E70C03A7070D1367070169
:102A8C0023A8E70C828023A2A18213064006894565
:102A9C0003C5C1826F30D178B717004003A5470C2E
:102AAC0083A7470C598113451500C18B058999E300
:102ABC001365250083C70182638CA7002380A18244
:102ACC0001C99387418203A30700630303000283B8
:102ADC00828011456FF02FC6411193962500AA856F
:102AEC002D4506C697E0FF1FE780E0A8B2400145E0
:102AFC0041018280411126C29394250022C44AC010
:102B0C002A843289A686AA850146254506C697E001
:102B1C00FF1FE78040A6A6864A86A285294597E036
:102B2C00FF1FE78040A5B240224492440249014570
:102B3C0041018280011122CC06CE3714004026CAF6
:102B4C004AC84EC652C483447405034AB40583492B
:102B5C00840503499405EFF0EF988347A40593F49B
:102B6C00F40F137AFA0F93E71700230DF40493F97B
:102B7C00F90F1379F90FB717004003C7A705058B99
:102B8C006DFF03D5C705A38D4705238C3705A38C93
:102B9C002705A38B9704F2406244D2444249B249C0
:102BAC00224A0561828041119397050122C406C611
:102BBC00C1872E8463DA0700EF30712F19C1EF3013
:102BCC00F1222165218D1DA093F7150013C5150069
:102BDC0091EF93F7250099CFC1351306000A89456B
:102BEC0003C5C182EF30D16313452400B2402244A7
:102BFC00410182809397250163D00702EF50512C3D
:102C0C00C93D37F60200130606E0896503C5C1828B
:102C1C00EF30116109657DB7939715010145E3D735
:102C2C0007FC17A501001305A54FEF908122130691
:102C3C000064916503C5C182EF30915E116559B78F
:102C4C001D71494697A501009385054917B50100EB
:102C5C001305854A86CEA2CC97E0FF1FE780600C57
:102C6C0001E917A5010013056548EF90811E01A02D
:102C7C0037F700E0795610CBFD5654CBB7E700E0A0
:102C8C00056423A087109306F00214C323A08718B1
:102C9C000100010017E7FF1F1307075223A4E1826D
:102CAC004157A38AE740130600048145080897E0C2
:102CBC00FF1FE780E003970700209387E7643EC877
:102CCC00A167938707E03ECCB707010593870710F0
:102CDC003ECEED472310F10285472301F102970701
:102CEC0000009387A7DFBEC2970700009387C7E059
:102CFC00BEC48567938757D12312F1029707000052
:102D0C009387A7BE3ED8B7F50700970700009387B7
:102D1C00A7E23EDC8146970700009387C7DB3000B3
:102D2C00E10519453EDE231A810097E0FF1FE7807D
:102D3C00808418088147994630003E960346060069
:102D4C0085070507A30BC700E398D7FEC24791C7B9
:102D5C000357410185676373F70001A00808EF4032
:102D6C00011BAA8501C917A5010013056539EF8060
:102D7C00117A01A0F6406644256182804111170545
:102D8C000000130585E206C622C4EF4081141384AB
:102D9C00C1822300A400212875310345040022447C
:102DAC00B24013060032896541016F307147797169
:102DBC0006D613078008F337078093F787083EC2BF
:102DCC0001000100B7170040930570052380B7047C
:102DDC00130680FA2380C7040100010083C6F702A2
:102DEC0093F6A60FA387D702238007049246F3A677
:102DFC0006800100010073370780137787083AC4F7
:102E0C00010001002380B7042380C70401000100E6
:102E1C0003C7F70213672700A387E7022380070481
:102E2C00A247F3A70780010001000545EFE0DFEEA4
:102E3C004D31814701478146054685451305407E46
:102E4C00EFE07FF268005146814597E0FF1FE78075
:102E5C0020EAB707C0A83EC8B787E803938707D016
:102E6C003ECA680097D7FF1F9387A7533EC6EF4013
:102E7C00212FB250456182801387015D8147BA854D
:102E8C00130690028356070089CE139547002E95A2
:102E9C005441139836006346080013982600635774
:102EAC00080085074107E39FC7FC01458280938694
:102EBC00015D814736871306900283D50600639621
:102ECC00A50092073305F70082808507C106E396BB
:102EDC00C7FE01458280D8414111A16722C406C6B4
:102EEC0026C29386B7012A846306D7089387D70333
:102EFC006305F7044DEF97A501009385652917A588
:102F0C0001001305A521EF80916017A501001305A1
:102F1C00A552EF80D15F2945EF8071638357640020
:102F2C007D77F98F93E757002313F40089471CC46E
:102F3C00B240224492444101828097A501009385BE
:102F4C00252517A501001305651DEF80515C17A5FC
:102F5C00010013052550EF80915B2945EF80315F0F
:102F6C00835764007D77F98F93E757002313F400A0
:102F7C008D4775BF97A501009385852117A5010085
:102F8C001305C519EF80B15817A501001305454E5F
:102F9C00EF80F1572945EF80915B835764007D7773
:102FAC00F98F93E757002313F400914749B7AE8488
:102FBC0017A501001305851697A501009385451DDE
:102FCC00EF80F154CC4017A501001305A54CEF8000
:102FDC0011542244B2409244294541016F8031572B
:102FEC00411197A501009385A51617A5010013059E
:102FFC00E51206C6EF80B151B240294541016F8000
:10300C001155411122C497A501009385E51D2A8411
:10301C0017A501001305851006C6EF80514F2945F1
:10302C00EF80F1525840A16793879704631BF70414
:10303C0003D5018569C1EFF0E06C03D50185853DB1
:10304C00835765007D777D17F98F232405002310A6
:10305C0005002313F50097A501009385E51817A526
:10306C0001001305A50BEF80914A17A5010013056C
:10307C00A52FEF80D1492244B240294541016F80F0
:10308C00114DDD3B05E197A501009385E51517A5CD
:10309C0001001305A508EF80914717A50100130542
:1030AC00E52DC1BF834604001307F00F6390E604BF
:1030BC0097A501009385451317A501001305050677
:1030CC00EF80F1444C4017A501001305E52CEF806F
:1030DC0011442945EF80B1472244B24003C54183D6
:1030EC001306803E854541016F3091135C45A285E6
:1030FC009C438297D5B7B2402244410182803971FA
:10310C0026DA4AD84ED6AE84AA89328981457146D0
:10311C00480006DE22DCEFE09FA00544231381006B
:10312C0023143101EF10A05B930700192305A100B4
:10313C003EC64A86FD57A6854800A3058100230A92
:10314C00F100EF10405CF2506254D2544259B25923
:10315C0021618280797122D406D626D24AD04ECEF5
:10316C0052CC56CA5AC85EC662C4834705002A842C
:10317C009DC397A501009385650817A5010013054C
:10318C00E5F9EF80D1384C4017A501001305C54374
:10319C00EF80F1376DA25841B707CF009387777D49
:1031AC00631EF7200356C5000C451385C15923A295
:1031BC00018497E0FF1FE780C0AF99451385C15983
:1031CC00EFF03F8397A501009385450317A50100F8
:1031DC001305C5F4EF80B1332945EF80513797A51E
:1031EC0001009385A50117A50100130525F3EF80B8
:1031FC0011328355E40017A501001305653E1389B0
:10320C004184EF80D1302945EF8071340355E400BF
:10321C00194697A501009385253DD53593840181E9
:10322C009C4003260900170700201307E7D38145AC
:10323C008146BA8963D3D71299C123A2C1840329C9
:10324C0009006313090C49473387E7028356E400EE
:10325C001385C1591946B387E9002398D7008147D4
:10326C00B305F50083C50500B306F700CE962380A1
:10327C00B6008507E396C7FE97A50100938505F870
:10328C0017A50100130585E9EF8071282945EF800A
:10329C00112C9C40494599453305F50217AC0100AA
:1032AC00130CCCF597AB0100938B4BE7494B97AACA
:1032BC000100938A6A52194A4E95EFF08FF397A545
:1032CC0001009385A5F317A50100130525E5EF80F3
:1032DC0011242945EF80B127E2855E85EF803123EB
:1032EC009C405685B3876703CE97CA9783C5070062
:1032FC000509EF80D1212945EF807125E31E49FD99
:10330C009C40850723A8F18003C7C1599307200867
:10331C00631AF7100357C4008547630BF70497A58E
:10332C0001009385A5ED17A50100130525DFEF809E
:10333C00111E17A501001305A52BEF80511D22545A
:10334C00B25092540259F249624AD24A424BB24BA1
:10335C00224C294545616F80911F0358E4000355A9
:10336C0007016314A8008545054685064907D9B5AC
:10337C00914503C54183EF3051010355E400EFF053
:10338C0060380355E4002536835765007D777D173B
:10339C00F98F23240500231005002313F50097A5AE
:1033AC0001009385A5E517A50100130525D7EF802E
:1033BC00111617A501001305652541B7B707CE00F7
:1033CC009387777D631AF70297A50100938505E330
:1033DC0017A50100130585D4EF8071131C44835687
:1033EC00E4008355C40003C6070017A501001305AC
:1033FC006523EF80D111A1B7B707CC009387777DF8
:10340C006302F70297A50100938545DF17A501001C
:10341C001305C5D0EF80B10F4C4017A50100130563
:10342C00A522BDB3B250225492540259F249624AB9
:10343C00D24A424BB24B224C456182801C45411111
:10344C0006C622C426C209476382E7060D4763827B
:10345C00E70A05446391870283550500035545002F
:10346C0017A701001307071185460146EF4000120C
:10347C00AA8401E901442285B240224492444101CC
:10348C00828097A50100938525D217A5010013050D
:10349C00E5C8EF80D107A68517A501001305050126
:1034AC00EF80F1062945EF80910AF1B7035605002C
:1034BC00035545009307707D01478546B285EF4063
:1034CC00200E2A8445D997A501009385E5CD17A533
:1034DC0001001305A5C4EF809103A28517A5010077
:1034EC00130585FFEF80B1022945EF805106054495
:1034FC0059B703560500035545009307707D0147E6
:10350C00B166B285EF40600B2A842DD597A50100DA
:10351C00938585C917A50100130545C0EF80217F50
:10352C00A28517A501001305A5FD6DBFD84141115A
:10353C0022C406C626C22A841DCFA1679387D7034F
:10354C00630DF706AE8417A50100130525BD97A5DD
:10355C0001009385A5C4EF80817BCC4017A50100A9
:10356C00130545F3EF80A17A2244B24092442945D9
:10357C0041016F80C17D97A50100938525C217A5D8
:10358C0001001305A5B9EF80817817A5010013057B
:10359C0025E5EF80C1772945EF80617B8357640077
:1035AC007D77F98F93E717002313F40089471CC428
:1035BC00B240224492444101828097A50100938538
:1035CC00E5BD17A50100130565B5EF80417417A57E
:1035DC0001001305A5E2EF8081732945EF80217767
:1035EC00835764007D77F98F93E717002313F4005A
:1035FC00914775BF411122C406C62A841385015D0B
:10360C0015E02A87814713089002835807006390BE
:10361C000808139447002A942312B4002310C40002
:10362C002311D4001387015D8147930590028356C3
:10363C00070099CE630ED60093964700AA96D44203
:10364C001398360063460800139826006359080641
:10365C0085074107E39DB7FC81471397D700835734
:10366C006400F976FD16F58FD98F2313F4001397A8
:10367C0027016349070013060064854503C5418390
:10368C00EF30013A2285B240224441018280850705
:10369C004107E39C07F797A50100938525AE17A575
:1036AC0001001305A5A7EF80816617A5010013057E
:1036BC00A5D6EF80C1652945EF806169E1B78547E3
:1036CC0069BF411122C44AC02E842A8997A50100E2
:1036DC00938505AF17A50100130545A406C626C2A0
:1036EC00EF80E1622945EF8081660545EFF0802F80
:1036FC0015C5AA8497A50100938585AC17A5010073
:10370C001305C5A1EF80A160A68517A501001305BF
:10371C0065E2EF80C15F2945EF8061632285EFF0A0
:10372C000FF919C5835765001397370163410706D5
:10373C0085462286CA857D3D0DE997A501009385B6
:10374C0025A817A501001305659DEF80415C17A501
:10375C000100130565E0EF80815B2244B240924486
:10376C000249294541016F80815E97B7010093871B
:10377C00A7B35CC503C721858357650019CF7D7737
:10378C00F98F93E717002313F50085471CC5B2404A
:10379C00224492440249410182807D77F98F93E75C
:1037AC0017002313F5009147D5B7011122CC26CA77
:1037BC002E84AA8497A50100938545A217A5010024
:1037CC001305C59506CE32C6EF8061542945EF80AE
:1037DC0001582285EFF0AFEDB24619C5835765004D
:1037EC0013973701634F07042286A685213505E917
:1037FC0097A501009385859E17A5010013050592D9
:10380C00EF80E15017A50100130505D5EF8021507D
:10381C006244F240D244294505616F80415397B709
:10382C0001009387E7A85CC503C721858357650012
:10383C0011CF7D77F98F93E757002313F500854758
:10384C001CC5F2406244D244056182807D77F98FB9
:10385C0093E757002313F5009147DDB7411122C4BC
:10386C0097A501009385859B2A8417A50100130554
:10387C00E58A06C6EF80A149A28517A501001305AC
:10388C00A5F5EF80C1482945EF80614C83D7015ED7
:10389C00D1CF97A501009385659817A50100130555
:1038AC00E587EF80C14683D5015E17A5010013059E
:1038BC0025B0EF80C1452945EF806149930720FA77
:1038CC0003D5015E238EF158A38EA1589357850022
:1038DC000D469385C159238FF158EFF05F82937792
:1038EC00F50F2A848DCB97A501009385259317A5F9
:1038FC0001001305A582EF8081419375F40F17A584
:10390C0001001305E5ABEF8081402244B24029450C
:10391C0041016F80C1432244B240056603C5418317
:10392C001306062C914541016F30810FB2402244A1
:10393C00410182801C45411106C622C4054763879C
:10394C00E7000947638CE704054505A0835505008E
:10395C000355450017A701001307C7C1854601464B
:10396C00EF30D0422A8411E50145B2402244410196
:10397C00828097A501009385E583179501001305B7
:10398C00E579EF80C138A28517A50100130505B2B2
:10399C00EF80E1372945EF80813B7DB70356050069
:1039AC00035545009307707D05478546B285EF307A
:1039BC00303F2A8455D9979501009385A57F17959B
:1039CC0001001305A575EF808134A28517A50100B0
:1039DC00130585B075BF411122C41795010013055D
:1039EC00E5732E84979501009385457706C6EF8085
:1039FC000132A28517A501001305C59DEF80213169
:103A0C002945EF80C13495476319F4002244B24034
:103A1C008545054541016FF0C0002244B240054583
:103A2C0041016FE0307C411122C426C22A84AE844D
:103A3C00179501001305856E9795010093854579BF
:103A4C0006C6EF80C12C29450588EF80413029C07E
:103A5C009546014681452685EF2000482A840DC9EC
:103A6C00979501009385C576179501001305056B95
:103A7C00EF80E129A28517A501001305A5B2EF80FF
:103A8C0001292244B2409244294541016F80212CE6
:103A9C00B240224492444101828081476394C70022
:103AAC0005458280B306F5003387F50083C6060012
:103ABC00034707006394E6008507CDB70145828074
:103ACC00797126D206D622D44AD04ECE52CC56CAC2
:103ADC005AC85EC662C466C26AC093F71500AE844B
:103AEC0063820714EFF04FB92A841DE59795010006
:103AFC00938585671795010013054562EF80212199
:103B0C0017A5010013058587EF8061202945EF80FB
:103B1C00012493C41400F9A0035765008567FD17B1
:103B2C007D8FB306F700FD8E835765007D76F18F90
:103B3C00D58F2313F50071E7979501009385C56226
:103B4C00179501001305855DEF80611C1795010029
:103B5C001305455DEF80A11B2945EF80411F0355DF
:103B6C000400EFE0303A03550400EFF04FB48357F4
:103B7C0065007D777D17F98F2313F500232405004D
:103B8C0023100500979501009385055E179501009C
:103B9C001305C558EF80A11717A50100130505A73C
:103BAC00EF80E1162945EF80811A1386015D81466D
:103BBC00328505489305900283570600B9CF1397B9
:103BCC0046002A975C431394370063480404F5833A
:103BDC00858B6394070583576700F976FD16F58F7F
:103BEC002313F700B2502254268502599254F249FD
:103BFC00624AD24A424BB24B224C924C024D456126
:103C0C0082805C45DC438297E30505F083576400B2
:103C1C000567D98F2313F40049BF85064106E39D40
:103C2C00B6F8C5BD93F72500B1C7854717F7FF1F39
:103C3C002314F73417F5FF1F13050533814797F548
:103C4C00FF1F9385652941473386F500034606001F
:103C5C00B306F50085072380C600E397E7FE0966E7
:103C6C0013060690894503C54183EF20715B93C40D
:103C7C0024008DBF93F745009DC797950100938550
:103C8C00A55B1795010013056549EF804108179551
:103C9C0001001305A54AEF8081072945EF80210B10
:103CAC0093C4440081B793F705016387072E97955A
:103CBC000100938565581795010013052546EF8083
:103CCC000105294517F4FF1F13048419EF802108FF
:103CDC002285F145EFE0FFD1979501009385C555FD
:103CEC001795010013058543EF8061022945EF808C
:103CFC00010603470400930540068346240033075E
:103D0C00B702034614009386060317F9FF1F130925
:103D1C00E95D979B0100938B2B52179B0100130BB2
:103D2C00EB3F17AA0100130A2AAB9949CA8A3697A6
:103D3C00A9463306D602329797F7FF1F2388E75A16
:103D4C0003473400034644003307D7024116329729
:103D5C0097F7FF1FA38CE758834754000347740061
:103D6C00B387B70213070703BA97034764003307F7
:103D7C00D702BA9717F7FF1F230BF7568347840018
:103D8C0003479400B387D7024117BA9717F7FF1F61
:103D9C00A30FF7540347A4008347B4003307D7029B
:103DAC00C117BA9717F7FF1F2304F7548347C400B2
:103DBC00B386D7028347D4000144C117BE9697F748
:103DCC00FF1FA387D752DE855A85EF705174B30756
:103DDC00890083C5070052850504EF70517329458E
:103DEC00EF70F176E31134FF17F7FF1F1307470746
:103DFC00814717F5FF1F1305E50CB5468345E70012
:103E0C003306F50085072300B6000507E398D7FEB7
:103E1C0013064006814517F5FF1F13056504EFD007
:103E2C001FD0979501009385254117950100130527
:103E3C00E52EEF70D16D2945EF707171B54517F511
:103E4C00FF1F13052508EFE0DFBA97950100938556
:103E5C00A53E179501001305652CEF70516B17F4F7
:103E6C00FF1F130464102945138B0181EF70316E11
:103E7C00228A0149A289DA8B179C0100130CCC3BD6
:103E8C00979C0100938C8C29179D0100130D4D7587
:103E9C0083270B00490A6348F90417FAFF1F130A1A
:103EAC00AA0C014917FCFF1F130C4C44854C294BE1
:103EBC004146D2856285D53609C523A4218523A622
:103ECC0091850509490AE31569FF17F7FF1F034799
:103EDC0077FF930700036317F704014997F9FF1F56
:103EEC00938949FE35A0E2856685EF705162835552
:103EFC00EAFF6A850509EF7091612945EF7031651C
:103F0C0041BF0355E4FF3546CE85EFF04F9F0509C1
:103F1C0083A70B004904E3D627FF23A6018493C48F
:103F2C000401C9B19387C18498438547E319F7FE0F
:103F3C000144979B0100938B2B30179B0100130BB3
:103F4C00EB1D17AA0100130A2A891949DE855A8527
:103F5C00EF70F15BB3878A0083C5070052850504B7
:103F6C00EF70F15A2945EF70915EE31124FF9387AE
:103F7C0081849C4349473546B387E70297F5FF1F79
:103F8C00938545F4BE9903D50901EFF04F9723A60D
:103F9C00018423A4018461B78144A9B10111354680
:103FAC00979501009385053017A50100130585939E
:103FBC0006CE22CC97D0FF1FE780A0D601E917953B
:103FCC0001001305A512EF70D16801A097E7FF1F40
:103FDC00938707EA3EC4B7F507008567938707CB3D
:103FEC0081461386C183E10519453EC697C0FF1F64
:103FFC00E780605819469385C18317F5FF1F130599
:10400C00A5ED97D0FF1FE780C0CA34001386C1838B
:10401C009795010093854566179501001305456733
:10402C00EF10D0462A840DC9979501009385C51FC2
:10403C00179501001305850EEF70714DA28517952C
:10404C00010013052527EF70914C2945EF70315075
:10405C00F240624405618280EF80200017950100D8
:10406C001305C51EEF0050679387015D17F7FF1FFF
:10407C00130787DD23A4070023900700C107E39BE8
:10408C00E7FEEF405075EFE0301117E5FF1F130509
:10409C00E5AAEFE0E074179501001305251CEFE08D
:1040AC0070112A84EF10803FEFA0A02EEF00F137A3
:1040BC00EF200059EF10701AEFC0900B979501008C
:1040CC0093858516179501001305450509C8EF70F2
:1040DC001144A2851795010013050520ADB7EF70AB
:1040EC0011431795010013056521EF7051422945C5
:1040FC00EF70F145EFC0206E85472389F184EF9076
:10410C00C01829C5979501009385051217950100D4
:10411C001305C500EF70B13F179501001305851FFE
:10412C00EF70F13E2945EF70914297950100938510
:10413C00A50F17950100130565FEEF70513D1795FE
:10414C00010013052521EF70913C01B797970100F1
:10415C0093874743054781460146814517950100E2
:10416C0013054543EF10905D2A8461D197950100AA
:10417C009385850B17950100130545FAEF703139BE
:10418C00A285179501001305251B75BD4111170557
:10419C0000001305259306C622C4EF209153138407
:1041AC0041832300A40017E5FF1F1305659BEF0057
:1041BC00700BED33EFE01F8917F5FFFF1305456A10
:1041CC00EFE07F8C034504002244B2401306004B01
:1041DC00894541016F20D1040111354697950100A5
:1041EC009385450C179501001305C56F06CE97D026
:1041FC00FF1FE78000B301E9179501001305454641
:10420C00EF70314501A0EF50F1722AC6EF00F16357
:10421C00EF003143EF70201FF24032450561828080
:10422C0041111305800406C622C497C0FF1FE78006
:10423C0040E7371400408327840A8D45130500207E
:10424C0093E707202324F40AEFE08FD88327840A0E
:10425C0085451305001093E707202324F40AEFE0AB
:10426C002FD78D4513050020EFE08FD6EFE00FF12F
:10427C000D45EFE0CFF395450545EFE0EFF4B7E7DB
:10428C0000E03707000823A0E710EFE07F9BEFE08A
:10429C00FFAE9937E53D97C0FF1FE78060210145D0
:1042AC0082804111B2862E86AA852D4506C697C0FE
:1042BC00FF1FE780402CB240014541018280AE8651
:1042CC000146AA85254517C3FF1F6700C32A93071C
:1042DC00000463E6C7021D71A2CC2A84080886CEAE
:1042EC0032C6EF707117B2461008A285294597C0E7
:1042FC00FF1FE7804028F6406644256182803955CF
:10430C0082809387418518429C4383D645000345A0
:10431C00070083C5C700035646006396A50083D5E6
:10432C00E700638DD502011106CE2386A7002397E3
:10433C00D700B705CF00DC4B9385757D05077D163F
:10434C002EC2230001003AC42316C1002317D1004A
:10435C0099C30A858297F2400561828082806D71D3
:10436C003C083EC6B707E500232291103EC8AA843C
:10437C003C083285232611103ECA232481102320A9
:10438C0021112E89EF20604B2A849795010093858B
:10439C00E53317950100130565D8EF705117A28509
:1043AC001795010013050540EF7071162945EF7044
:1043BC00111AB705CD009385757D6800EF00702B41
:1043CC00A2856800EF20003D014781467000CA8538
:1043DC002685EF00504A15C52A84979501009385D0
:1043EC00E52E17950100130565D3EF705112A285C8
:1043FC00179501001305C53BEF7071112945EF703E
:10440C0011158320C110032481108324411003292A
:10441C00011051618280797122D452CC2E842A8A67
:10442C00979501009385052C17950100130505CF71
:10443C0006D626D24AD004424ECE32898359460043
:10444C00EF70F10C035724008306840003566400BC
:10445C0083554400179501001305053BEF70310B94
:10446C002945EF70D10E938741859C4303C7040007
:10447C0083C607016398E6000356440083D6E70021
:10448C00630AD6022388E700835644003707CE0020
:10449C001307777D2397D700DC4B8504FD193AC2AF
:1044AC002300010026C4231631012317D10099C320
:1044BC000A8582974A86A28552855535B250225478
:1044CC0092540259F249624A456182806D713C08EE
:1044DC003EC0B707E5003EC23C083EC4232611107F
:1044EC00232481102322911023170100231801008B
:1044FC0023190100231A0100231B010097D7FF1F6A
:10450C0083D7076899E3C167FD172316F10097D786
:10451C00FF1F83D7076781EB938741859C439C439F
:10452C00DC4783D7070017D4FF1F13046465584C6E
:10453C002317F10083574400484B2318F10005ED75
:10454C00979501009385051F17950100130505BD6F
:10455C00EF70E17B179501001305C521EF70217BEE
:10456C002945EF70C17E8320C11003248110832460
:10457C0041105161828097D7FF1F83C7D76099E79D
:10458C00EF20C1065C4C23AA0700F1BFFD1797D69C
:10459C00FF1FA38AF65E03560701834704014C47AD
:1045AC000A85230BF100EF20001D938741859C4366
:1045BC000147814688430A866C00EF00D02BAA8401
:1045CC0005C9979501009385E5161795010013050C
:1045DC00E5B4EF70C173A685179501001305451A54
:1045EC00EF70E1722945EF7081765C4CC84B49BF86
:1045FC0097D7FF1F83C73759EDDB1044854503C59B
:10460C008185EF20E14185B7411122C426C22E8459
:10461C00AA84979501009385E5131795010013055E
:10462C00E5AF06C6EF70A16EA685179501001305C0
:10463C00E524EF70C16D2945EF7061715C4CDC4B6A
:10464C0099CB10442244B240924403C581859145D4
:10465C0041016F20E13CB2402244924441018280EE
:10466C005C4EDC4BA1C7B9C1411122C417950100A6
:10467C001305C5AA2E84979501009385E50C06C6F3
:10468C00EF70E168A2851795010013056520EF70A6
:10469C0001682945EF70A16B2244B24003C58185A6
:1046AC0013064006914541016F20813782804111EC
:1046BC0022C417D4FF1F1304A44E1C4C06C689C772
:1046CC00DC4399C34C4882975C4CC84BEF10117279
:1046DC005C4CB240224423AA07004101828013871C
:1046EC00318583470700850793F7F70F939687016A
:1046FC00E18663C70600A389F18403450700828025
:10470C00A3890184DDBF83574500638D070C01111C
:10471C004AC817D9FF1F1309A94652C4032AC90155
:10472C0006CE22CC03274A0126CA4EC6F15729EBE6
:10473C001307D00DFD576365C7042A841305860043
:10474C0042054181B284AE89EF10716F232AAA0011
:10475C000325C9015C4995EF97950100938585FB6D
:10476C00179501001305859BEF70615A1795010091
:10477C001305850CEF70A1592945EF70415DDD578C
:10478C00F2406244D2444249B249224A3E85056114
:10479C00828093874400B705CF002319F5009385D9
:1047AC00757D3105EF00E06C0325C901834564007C
:1047BC003105EF10307E0325C9012686CE853105E3
:1047CC00EF10707B7146A2854A85EF70E14850442A
:1047DC0001CA854503C58185EF20812481474DB7EA
:1047EC00F531EDBFFD573E858280411122C417D4AF
:1047FC00FF1F1304E4385C4C06C6C84BEF10115F66
:10480C005C4C2244B24023AA070003C58185854530
:10481C0041016F208137138741851C43BDCB41116A
:10482C0026C2BA84D84306C622C439CF2300B500A9
:10483C0058C123A4070023A2070097D7FF1F938713
:10484C002736DC4F2A84DC4B99C329558D3597D7F5
:10485C00FF1F9387E732DC4FDC4B91C379378945D7
:10486C0003C58185EF206132914503C58185EF2019
:10487C00C1319C4003A347016308030022852244F5
:10488C00B240924441010283B2402244924441011D
:10489C00828082800111328506CE22CC26CA2E84DB
:1048AC00EF10B079AA8497950100938525E51795AB
:1048BC0001001305A586EF7081450307840003569C
:1048CC00640083554400A68617950100130505F175
:1048DC00EF70E1432945EF70814797D7FF1F83C7DE
:1048EC00872C639797000145D93381450A85253775
:1048FC00F2406244D244056182806D7123248110A0
:10490C00232611102322911093F715002E8489CFA2
:10491C00EFF0DFBB134514008320C110032481107A
:10492C00832441105161828093F725008DC3414649
:10493C008145280897C0FF1FE780803B2555853BA4
:10494C0028089305F00FC13D13452400F1B793F7E8
:10495C0045000145F1D33C083EC0B707E5003EC217
:10496C003C083EC423170100231801002319010041
:10497C00231A0100231B010097D7FF1F83D747225F
:10498C0099E3C167FD172316F10097D7FF1F83D753
:10499C00472181EB938741859C439C43DC4783D71C
:1049AC00070017D7FF1F1307A71F2317F100544F3A
:1049BC00835747002318F100DC4A9DE797950100C7
:1049CC00938505DA1785010013054575EF702134C1
:1049DC0017950100130505DAEF7061332945EF7067
:1049EC000137134544000DBF97D7FF1F83C7B71B73
:1049FC002555B5C7FD1717D6FF1FA306F61A03D604
:104A0C00060183470701CC460A85230BF100EF1002
:104A1C009056938741859C4317D7FF1F1307471860
:104A2C0097A601009386468988430A866C00A125C7
:104A3C00AA8445D997950100938585D217850100E5
:104A4C001305C56DEF70A12CA685179501001305F4
:104A5C0025D3EF70C12B2945EF70612F2685EFF020
:104A6C001FC541B75C4D411106C688C31705000030
:104A7C001305E5E823AAF184EF20A145B240238C6D
:104A8C00A184014541018280EFD2CF842A8408455C
:104A9C002E89B28909C900C1970500009385E57379
:104AAC006105EF00612B81447D5AEF10400463C314
:104ABC00A4048144EF10A00463C6A404970700204B
:104ACC00938707889C43DC47B307F94091872302FF
:104ADC00F400638109048327C900B307F440958768
:104AEC00A302F4001C4C89C79C4799C3228582976A
:104AFC006FD08F815C44139714008504BA97239070
:104B0C00470165B71C48139714008504BA97239086
:104B1C0007004DB7832789000547B307F4409587F5
:104B2C00A302F40083570400638EE7028DC3094788
:104B3C006384E7040D47E397E7FA9797010093879F
:104B4C0027291CCC979701009387872911A8979741
:104B5C000100938767EF1CCC979701009387C7EFF1
:104B6C005CC849B797970100938707DB1CCC9797D4
:104B7C000100938767DBEDB7979701009387072AAE
:104B8C001CCC979701009387672AD9BF85E1EFC2A8
:104B9C001FF6004618448347940075839D8B63155C
:104BAC00F700EF00D01948C46FC0BFF68280EFC287
:104BBC007FF213893500C16442094111AA8901446D
:104BCC00F11413590901054A2EC6EF005072B24573
:104BDC006346A400014541016FC01FF383A7090080
:104BEC0013171400BA9783D707006388B700639430
:104BFC00970063742A010504C1BF0545E9BFEFC2E4
:104C0C009FECAA892E89328BB6843A8ABE8AEF80B1
:104C1C00C0674DC12685EF10F0318D4763E5A700C5
:104C2C007D556FC0DFED83DB4400EF0050722A84AA
:104C3C00EF0030739307740031443305850263C56C
:104C4C00A702EF00D070EF0090702A84EF00707113
:104C5C009307740031443305850263CDA702EF003E
:104C6C00106F9307450019A8EF00B06F330585024C
:104C7C001307F0179307C017E357A7FC2D55E3C292
:104C8C0077FB63000B02D6865286A6854A85EFF029
:104C9C00400E41BFEF00F06C330585029307C5FF52
:104CAC00F1BF832749001385C90083D5270001373D
:104CBC0079F9BDB76955B5B797F7FF1F2394A76866
:104CCC0097F7FF1F9387C767904381470C463307BD
:104CDC00F500420741836393B700828054461398D2
:104CEC0047008507C2962390E600D5B797F7FF1FBC
:104CFC00938707659C4303C58700828017F5FF1FC8
:104D0C00035545648280EFC29FDEC1671387D7FFCE
:104D1C006307E5026368A700F117630EF500014510
:104D2C006FC03FDF1387E7FF630EE500FD171D8D96
:104D3C0013351500F5B7EF4080627D15D5BFEF40F8
:104D4C000040E5BFEF40603ECDBFEFC25FDA4111DE
:104D5C00AA8401442EC6EF00905AB2456346A400C3
:104D6C00014541016FC0FFDA9C48131514003E95B4
:104D7C0083570500E387B7FE0504E9BF03485500D8
:104D8C00814693F7F60F63E5070181473E858280E4
:104D9C00584593975600BA9703D727006316B70068
:104DAC0003D70700E304C7FE8506E1BF8346450031
:104DBC0001479377F70F63E4D700814711A81C458F
:104DCC00131657000507B29703D60700E313B6FE78
:104DDC003E858280EFC21FD093170501C18797FAD9
:104DEC00FF1F938AEA556353F00883A70A00C04754
:104DFC009C4703570400198D420541816366F500F9
:104E0C00014422856FC05FD012052A94DDBFDC47B8
:104E1C0013944900014A3E94834744006341FA02CB
:104E2C00014A834754006346FA028509C20993D9A3
:104E3C00090183A70A009847E3EBE9FCD1B71C44AE
:104E4C0013195A00A6853E994A85013709ED050AC2
:104E5C00E1B75C4413195A00A6853E994A85F5358D
:104E6C0019E1050A7DBFE30209FC61BFAA848149EF
:104E7C00C9B7EFC2DFC71C452A8481E79307C50079
:104E8C001CC51C44231204001CC09307F00F63E9DB
:104E9C00B70093F5F50F2285EF10D00F6FC07FC7C9
:104EAC0093940501C167C18063F7F500A68522853F
:104EBC00EF10F011E5B7C18193F5F50F2285EF10D6
:104ECC00700DA6852285EF10300EC9BF97F7FF1F16
:104EDC0093870747884382801C4599C797F7FF1F24
:104EEC0023A0A746014582807D55828097F7FF1F3E
:104EFC0093870745984383474500484792073E955B
:104F0C008280EFC2DFBE617100451C183EC6B70738
:104F1C0080013EC81C183ECA8357440002CE02D002
:104F2C0002CC231EF100834784002A8902D223017C
:104F3C00F1023C083ED402D6553F83570500231698
:104F4C00F102EF4040112307A1025C4003556400BD
:104F5C00F18313F717008347F10252055181F99B36
:104F6C00D98FA307F102EFE0305239C5AA8403555B
:104F7C000500EF80603283D704002AD26800231C1E
:104F8C00F10083D72400231DF1001C4803D64700F1
:104F9C008C43EF10407E8347B400CA8617960100FD
:104FAC00130606918117A305F4006C004810EFE07E
:104FBC00505C5D616FC0FFB52155E5BF1C45B1CF9D
:104FCC0003C5A700894613576500630BD7028D46AE
:104FDC00630ED70285466300D702130740063305DC
:104FEC00E50203C7B700418B15CB83C7B700BD8B58
:104FFC003355F54082801375F5031307803EC5B712
:10500C0009671375F50313070771D1BF372709001B
:10501C001375F5031307077CD9B701458280EFC2DE
:10502C001FAD03A98500630409048347B900AE844E
:10503C0093F7070E91CF03459900930520030D813B
:10504C000505B305B50288446105EFF0D05C05A0F9
:10505C002E85AD372A8401CDDD218325C900B30708
:10506C00B54063F887002E94B305A440E9FD6FC0EA
:10507C005FAA8545C9BFEFC29FA72A8403D5050047
:10508C00011132C636C43AC22EC002CA02CC02CEBC
:10509C00EF80802082452ACA22852ECC813D035781
:1050AC000500231EE100EF30107BA24632469247EA
:1050BC00230FA10036874C08B28622850146EFF0FB
:1050CC001FB405616FC0FFA4EFC27FA261711C18F1
:1050DC003EC6B70780013EC81C183ECA3C080045B6
:1050EC003ED4AA8402CC02CE02D002D202D6EFF079
:1050FC00FFDF8357050035592316F102EF30B075E9
:10510C002307A10209C48357440091E721594A851A
:10511C005D616FC01FA00355640052055181EFE023
:10512C00B0362A8965D58347B40093F7070E89C733
:10513C0013058401EFF0B04F83574400231EF10098
:10514C00834784002301F1025C4003550900D98395
:10515C0013F7070883471102231CA10093F7F707E5
:10516C00D98FA300F10283572900231DF1005C4065
:10517C00F18313F717008347F102F99BD98FA3072B
:10518C00F102EF8060112AD251D18347940068005C
:10519C00139757008347B400FD8BD98FA305F400F8
:1051AC001C4803D647008C43EF10E05CA68717879A
:1051BC0001001307E76F740005464C102685EFF0CD
:1051CC001FA42A8929D58347B400A685FD8BA30586
:1051DC00F400B1352DBFEFC29F91832485FE2A8444
:1051EC0041112685EFF09FDD834734FF93F7070EBF
:1051FC009DC32AC62685EFF0DFD019C9834734FF3B
:10520C00B245FD8BA309F4FE81C52285EFF0B040B9
:10521C0041016FC01F906DDD8327C4FF26858297E7
:10522C0065F9834734FF93F7070E81C72285EFF0AA
:10523C001040032584FE493DE1BFEFC25F889C41CD
:10524C0041112A8903C7070089472E8493566700AA
:10525C00638CF6020D466382C6049307F007630263
:10526C00F7022E85EF10605DAA848149C16B130C87
:10527C00490097F7FF1F9387A70C9C43984763EC53
:10528C00E90241016FC07F8703D745008547E3FAE8
:10529C00E7FE2E85EF10405EC1BF03D74500E3F259
:1052AC00E7FE2E85EF106059AA842285EF10405A34
:1052BC00C204C98C5DBFDC470355A900139A490091
:1052CC003E9A93170501C187635DF00083570A006E
:1052DC006395A70263E574038327CA00034D5A0044
:1052EC001DA0A1672167A98F1307F7EFE374F7FEE1
:1052FC0063950900EFF03FA171FD85099DBF8327E0
:10530C008A00034D4A00835DA90003576900216A96
:10531C00138BC7003AC6814A33CA4D01631E5D0127
:10532C0097F7FF1F938747029C43E1DBA2866286B7
:10533C00814526858297D1B7A1679387F7EF930CA8
:10534C004BFF63F04703B2455A85EFF05F8619CDEA
:10535C0003278B00104719CA10436380C40231071E
:10536C00D5BFEE856685EFF05F9E71FD93861A00C2
:10537C0093FAF60F130B0B0255B7835644005C439C
:10538C00E3EDF6F622853AC6EF10203AA167938733
:10539C00D7042A8A035D4400324763E897008347A9
:1053AC00D90093E707F8A306F9001C476685228607
:1053BC00E2858297C1670844FD17337AFA0052954B
:1053CC0008C02312A40115BF97F7FF1F938747F757
:1053DC009843814715C31447814763FFD5009397C2
:1053EC0045004C47BE9519C903C7550081476375E5
:1053FC00E600DC451606B2973E85828003C7450061
:10540C008147E37BE6FE16069C45F5B7EFC28FECB1
:10541C00AA892E8A814497FAFF1F938A6AF283A77E
:10542C000A00984763E4E4006FC00FEEDC47139466
:10543C00440001493E9413BB140083474400634B62
:10544C00F900014913BB140083475400634FF90062
:10545C008504F1B70844931759005287DA86014640
:10546C00A2853E9582990509C9BF484493175900F6
:10547C005287DA860546A2853E9582990509E9B7D9
:10548C00EFC2EFE6814517F5FFFF1305256097F78F
:10549C00FF1F239907EA9D3F6FC0AFE797F7FF1FE8
:1054AC00938707EA9C4399CBEFC26FE4814517F5CC
:1054BC00FFFF1305A55D993F6FC0AFE58280EFC27A
:1054CC006FE141112315E1002E89B284B6893A8629
:1054DC0081460147ED452A84EF2021072AC61DCDC0
:1054EC000356A100CE85EF602177CA852285EF2077
:1054FC00211A058915C1228501462C00231491001F
:10550C00EF2001302A8409C5ED452800EF20411217
:10551C00228541016FC04FDF4944FDB76554CDBFB3
:10552C005C41FD175CC18280EFC26FDCEF10A142C1
:10553C0095473305F50281450D816FC08FDDEFC2B4
:10554C000FDBEF10414195473305F5020D816FC01C
:10555C004FDCEFC2CFD903550500EF10515B6FC084
:10556C004FDBEFC2CFD8035505003287AE8617C686
:10557C00FF1F0356C66997F5FF1F938525DD8137FD
:10558C006FC02FD9EFC2AFD6EF50513E6FC06FD85E
:10559C00EFC2EFD597F5FF1F938545DBEF20212D4B
:1055AC0001456FC00FD7EFC28FD4814517C5FF1FC0
:1055BC000355E561EF20E1176FC0AFD5EFC22FD3D4
:1055CC0097F5FF1F938585D9EF20612A01456FC0A0
:1055DC004FD4EFC2CFD1814517C5FF1F03552565A9
:1055EC00EF2021156FC0EFD2EFC26FD02E85EF6088
:1055FC00E079EF60302F6FC0CFD1EFC24FCFEF60AB
:10560C0010396FC00FD15C49E1175CC95CC5835779
:10561C002501A1072319F50083570501A1072318BC
:10562C00F5008280F1473305F50297F7FF1F93874A
:10563C00E7D49C433E9582808D476317F60603D7CB
:10564C004600854763F2E706EFC26FCA368536849B
:10565C002E89EF10801E39C1835744009314050125
:10566C00C18063ED97022285EF10201DFD142312DB
:10567C0094009307A002630EF5009307B002630138
:10568C00F50293079002631BF5002285EFD0601D95
:10569C0031A00146CA852285EF80C02F6FC06FC72D
:1056AC002285EF00705ADDBF828097F6FF1F93862C
:1056BC0026CD9C42014599CF9843D44217F6FF1F43
:1056CC002320E6CC6396D70097F6FF1F23ACE6CADF
:1056DC001385C7FE8280EFC28FC1D126714433057A
:1056EC0085029145EF70300301E565556FC06FC2BF
:1056FC0097F7FF1F23A2A7C85D26330585029145A6
:10570C00EF7070017DD197F7FF1F23A9A7C6412E1B
:10571C0097F7FF1F239CA7C4592697F7FF1F2398C1
:10572C00A7C4978701009387E71D17F7FF1F232353
:10573C00F7C497070000938747ED17F7FF1F23293E
:10574C00F7C2014565B7EFC28FBAAA8517F5FF1FDF
:10575C001305C5C1EF1040226FC0AFBBEFC22FB90C
:10576C00DD37EF10E02297F7FF1F938767C19C434B
:10577C0081CF1387C7FE09CB83D5C7FF17F5FF1F52
:10578C00130585C0EFF020696FC0AFB8EFC22FB61C
:10579C00EFF0BFF119C9834785002A8493F70704FA
:1057AC0099E70355E500EFF07FFB6FC08FB6834799
:1057BC00C5009304450117F9FF1F130969BC85E364
:1057CC00832709005CC997F7FF1F23AB97BA832780
:1057DC004900E1FF97F7FF1F23A697BAF9B7FD170A
:1057EC002306F5006105EF6010208307840063C970
:1057FC0007048347840093E707F82304F400EF10B1
:10580C00610E4205A94741813375F5028347840037
:10581C0093F707FCC98F2304F4008347D4003E950B
:10582C001C402318A40089CF984319CB8347C4008C
:10583C005040814585073305F502420541810297A9
:10584C00832709005CC897F7FF1F23AB97B2832708
:10585C00490089E797F7FF1F23A697B28347C40037
:10586C00A9D78355040117F5FF1F1305E5B1EFF018
:10587C00805A25BFEFC2AFA797F7FF1F938707D6B4
:10588C009C4701448583858B81EFAE84B2853A8633
:10589C00EF1060152A8409C5EF10600C829408CCB7
:1058AC0022856FC00FA7EFC2EFA241112E8932C61D
:1058BC00AA89712C324713060502CA869705000087
:1058CC00938585D617F5FF1F130545AAEFF09FFAB0
:1058DC002A8429CD9304C50065261946AA852685F8
:1058EC00EF00706985452685EF005066178501002D
:1058FC00130505FF4E95834505002685EF0090693D
:10590C005C4831468145A1075CC85CC483572401BF
:10591C00E1172319F40083570401E1172318F4004D
:10592C001C4C3E85EFC0AF9FA3042501228541018D
:10593C006FC08F9DEFC2AF9B4111AA842EC632C49B
:10594C00EF104004004DB2452246834784000CC042
:10595C0050C093F7F70393E707042304F4002318CC
:10596C0004002685EF00B07F83479400A9462317D7
:10597C00A40013D7370005073307D7029D8B850783
:10598C002306F400A306E40083C70401D848850766
:10599C00230FF7FE17F7FF1F1307879E5843232A81
:1059AC000400930744011DEB17F7FF1F232CF79CF2
:1059BC0017F7FF1F2326F79C17F4FF1F1304C49C33
:1059CC002285EFF0003B1C44858B5D8D09E58145FC
:1059DC002285EFF0404441016FC0AF931CC317F711
:1059EC00FF1F2321F79AC9BFEFC26F9097050000E4
:1059FC009385C5C40145EFF03FBF01456FC06F9162
:105A0C00EFC2EF8EEFF07FBF6FC0AF908347C50042
:105A1C00A1E7EFC2CF8D2A840355E500EFF0BFD28A
:105A2C0015C98347840093F7F7FB2304F4001C404B
:105A3C0091C7DC4381C74C4001458297EFF0FFC60C
:105A4C0017F5FF1F13054594EFF0603E0355E40076
:105A5C00EFF0DFD06FC0EF8B8280EFC24F8997F7EA
:105A6C00FF1F9387E79197050000938565D217F583
:105A7C00FF1F1305659123A0070023A20700EFF079
:105A8C00A02D6FC00F891C4D91CBDC4381CBEFC295
:105A9C000F868345070082976FC0AF87828097F788
:105AAC00FF1F9387A7909C4303C50700828097F73D
:105ABC00FF1F9387A78F9C4303C51700828097F71E
:105ACC00FF1F9387A78E9C4303C52700828097F7FF
